:10000000680500201509000053090000550900008B
:100010005F090000670900006F0900000000000090
:100020000000000000000000000000007709000050
:1000300079090000000000007B0900007D09000034
:100040007F09000081090000830900008509000084
:1000500087090000890900009F090000A10900002C
:10006000A3090000000000000000000000000000E4
:1000700000000000A5090000A7090000A909000070
:10008000AB090000AD090000AF090000B109000094
:10009000B3090000B5090000B70900000000000026
:1000A0000000000000000000B9090000BB090000CA
:1000B000BD090000BF090000C1090000C30900001C
:1000C000C5090000C7090000C9090000CB090000EC
:1000D000CD090000CF090000D1090000D3090000BC
:1000E000000000000000000000000000D509000032
:1000F000D7090000D9090000DB090000DD09000074
:100100001D0A00001F0A0000210A0000230A000047
:10011000250A0000270A0000290A00002B0A000017
:100120002D0A00002F0A0000310A0000330A0000E7
:10013000350A0000370A0000390A00003B0A0000B7
:100140003D0A00003F0A0000410A0000430A000087
:10015000450A0000470A0000490A00004B0A000057
:100160004D0A00004F0A0000510A0000530A000027
:10017000550A0000570A0000590A00005B0A0000F7
:100180005D0A00005F0A0000610A0000630A0000C7
:10019000650A0000670A000000000000690A00000C
:1001A000000000006B0A00006D0A00006F0A0000EA
:1001B000710A0000730A0000750A0000770A000047
:0C01C000790A00007B0A00007D0A0000A4
:1004000080B572B600201149086001213F2000F03C
:1004100021F862B601BD80B572B610220B480068A3
:1004200010F57C310A4800F019F862B607480068F8
:1004300010300649086005480068B0F5805F04D1B7
:10044000002002490860FFF7DBFF01BD68050020BE
:1004500054030020DFF800F0C3010020DFF800F0B3
:100460007F01002010B440B2002808D50A01A24B39
:1004700040B210F00F04E31803F8042C03E00A0163
:100480009E4B40B2C25410BC704710B50400601EB1
:10049000B0F1807F01D301200EE0601E9849086012
:1004A0000F215FF0FF30FFF7DDFF00209549086066
:1004B000072095490860002010BD80B572B69348AA
:1004C00000689349084391490860924800685FF0CA
:1004D000FF30904908609048006850F080008E49D5
:1004E00008608E48006850F001108C49086000F0E8
:1004F00021F800F0FBF8012000F0AAF962B600F044
:10050000ECF987480068401C8549086085480078F8
:10051000012805D1FFF774FF002082490870EEE73B
:10052000804800780228EAD1FFF775FF00207D4956
:100530000870E4E700207C49086000207B490860DF
:1005400000207B49086000207A49086000207A4931
:10055000086000207949086000207949086000207F
:1005600078490860002078490860002077490860D1
:10057000002077490860002076490860012076490C
:100580000860002075490860002075490860002057
:1005900074490860002074490860002073490860AD
:1005A00000207349086001207249086000207249E8
:1005B000086000207149086000207149086000202F
:1005C0007049086000207049086000206F49086089
:1005D00000206F49086000206E49086000206E49C5
:1005E000086000206D49086000206D490860012006
:1005F0006C49086000206C49086000206B49086065
:1006000000206B49086000206A49086023206A497D
:1006100008600020694908600020694908600020DE
:100620006849086000206849086000206749086040
:10063000002067490860002066490860002066497C
:1006400008600120654908600020654908600020B5
:100650006449086001206449086003206349086018
:100660000020634908600020624908600020624958
:10067000086000206149086000206149086000208E
:100680006049086000206049086002205F490860F6
:1006900000205F49086000205E49086004205E4930
:1006A000086000205D49086006205D49086003205D
:1006B0005C49086000205C49086000205B490860D4
:1006C00000205B49086000205A4908600C205A4904
:1006D0000860002059490860042059490860182022
:1006E000584908600D2058490860704780B5574840
:1006F000FFF7CBFE01BD000018ED00E000E400E0D4
:1007000014E000E018E000E010E000E050300F409E
:10071000FF07FF7F54300F4058300F405C300F40D0
:100720006C0500207005002000000C4004000C4007
:1007300008000C400C000C4010000C4014000C4051
:1007400018000C4028000C402C000C4030000C40DD
:1007500038000C4000010C4004010C4010010C401A
:1007600014010C4018010C401C010C4020010C40ED
:1007700028010C402C010C4030010C4038010C4089
:1007800000020C4004020C4008020C400C020C4019
:1007900014020C4018020C4028020C402C020C40A1
:1007A00030020C4038020C4000040C4004040C40A1
:1007B00028040C402C040C4030040C4038040C403D
:1007C00000050C4004050C4014050C4018050C40B5
:1007D0001C050C4028050C402C050C4030050C4035
:1007E00038050C4000060C4004060C4008060C407E
:1007F00010060C4014060C4018060C4020060C4055
:1008000028060C402C060C4030060C4038060C40E4
:1008100000070C4030070C4038070C4000090C4022
:1008200004090C4008090C400C090C4010090C404C
:1008300014090C4018090C4020090C4028090C40F0
:100840002C090C4030090C4038090C4040D7B70047
:100850000100C9B2002905D10020224A10702148A8
:10086000007839E0C9B2012902D11E48007833E08E
:1008700001201D4A1060F9201C4A106000201C4A0B
:10088000106032201B4A10604B201B4A1060002071
:100890001A4A106000201A4A1060E420144A1060BE
:1008A000184800680028FBD0174800680020104A4C
:1008B00010600020124A10600120104A1060E420ED
:1008C0000B4A10600620094A106053200F4A10702E
:1008D0000120044A1070FF2070474E200C49086028
:1008E00070470000720500208C00E64300100F40A6
:1008F00004100F4008100F4010100F4018100F4048
:1009000020100F408403E2438003E24300EC0340E5
:1009100008B40B400148804701480047A10A000085
:1009200031100000012110F01F029140354A40B201
:10093000430942F823107047BFF34F8F32480068D5
:1009400010F4E060314908432F490860BFF34F8F2E
:10095000FEE7704780B500BFFFF7EEFF01BD80B531
:10096000FFF7EAFF01BD80B5FFF7E6FF01BD80B5E7
:10097000FFF7E2FF01BD704770477047704770474F
:10098000704770477047704780B52148007850F035
:10099000C0001F4908700520FFF7C4FF01BD704764
:1009A000704770477047704770477047704770478F
:1009B000704770477047704770477047704770477F
:1009C000704770477047704770477047704770476F
:1009D0007047704770477047704770470D48007800
:1009E000401C0C4908700B480078642808DB0A4852
:1009F000006890F00100084908600020054908706F
:100A00007047000080E200E00CED00E00400FA0511
:100A1000824E0F407105002004808043704770476C
:100A2000704770477047704770477047704770470E
:100A300070477047704770477047704770477047FE
:100A400070477047704770477047704770477047EE
:100A500070477047704770477047704770477047DE
:100A600070477047704770477047704770477047CE
:100A7000704770477047704770477047704750F82D
:100A8000041B61B150F8042BD30744BFA9F1010343
:100A90009A180023091F42F8043BFAD1EFE7704788
:100AA000002036490860B1203549086035480068A3
:100AB00050F47000334908602F4800682E490860E0
:100AC0002D4800682C4908602848006850F0020052
:100AD000264908602C482D4908602D482B4908609C
:100AE0002A4800688007FBD42048006850F48070D2
:100AF0001E4908601D4800688005FBD5254823492C
:100B000008601B48006830F0020019490860184866
:100B100000684008400016490860164814490860FB
:100B20001D481A490860194800688007FBD41B4813
:100B3000164908600E48006850F001000C49086032
:100B40000020174908601748104908600F480068DE
:100B50008007FBD40648006850F002000449086092
:100B6000034800684007FBD57047000004300F4081
:100B700020300F40001E502408300F4004B40B40BA
:100B800008B40B4088ED00E0000140C330300F4056
:100B9000010140C30001D0030101D0030001900F07
:100BA0000C300F400101900F0300002013F0030FE1
:100BB00009D0521E22BF13F8010B11F801CBB0EB84
:100BC0000C00F3D07047121F22BF53F8040B51F8EA
:100BD00004CB6045F7D0121D0AD200BA9CFA8CFCF7
:100BE000B0EB0C0038BF6FF0000088BF01207047E9
:100BF000521E22BF13F8010B11F801CBB0EB0C0011
:100C0000F6D0521C08BF1046704710B450F8041BB1
:100C100081B102681218001D50F8043BDC0744BF84
:100C2000A9F10104E31852F8044B43F8044B091FDF
:100C3000F9D1EBE710BC70474EF68851CEF20001B7
:100C4000086840F470000860BFF34F8FBFF36F8FE8
:100C50004FF00070E1EE100A7047000000F00BF852
:100C6000002801D000F00AF80020C046C046FFF777
:100C700024FC00F017F801207047000010B5074968
:100C800079441831064C7C44163404E00A68081D87
:100C9000511888470146A142F8D110BDA0030000B9
:100CA000C003000000F000B80746384600F002F824
:100CB000FBE7000080B5C046C046024A110018207C
:100CC000ABBEFBE726000200DFF800F0A90B000036
:100CD00001208A4909688A4A114051F00701894A6E
:100CE000894B1A60854A1160844A12685301FBD50A
:100CF000002318007047012080490968804A11408C
:100D0000804A814B1A607D4A11607C4A1268530107
:100D1000FBD40023180070472DE9F84F04000D00A4
:100D200016007A4FDFF8E88115F1BC49A246FFF7BB
:100D3000CFFF0090009800281DD1AA2038605520D0
:100D4000C8F80000A020386000208346B34508D2D0
:100D5000DAF80000C9F800001AF1040A1BF1040BCC
:100D6000F4E7012000F062F80028FAD0012000F03A
:100D70005DF80128FAD0FFF7BEFF0090BDE8F18FC3
:100D8000F8B504000D0016000127320029002000EC
:100D9000FFF79AFF0100002901D100200700380069
:100DA000F2BD2DE9F04704000D00160014F5AA6805
:100DB00014F52A69AA46FFF78BFF0700002F1BD105
:100DC000AA20C8F800005520C9F800008020C8F803
:100DD0000000AA20C8F800005520C9F80000F6B2AB
:100DE000CAF80060012000F021F80028FAD00120A4
:100DF00000F01CF80128FAD0FFF77DFF0700BDE8DE
:100E0000F08730B40200002000242300B3EB910FE0
:100E10000AD212EB8304256815F1010F02D00125D7
:100E2000280001E05B1CF1E730BC704701000120A5
:100E3000384B1B68C9B20B401A00C9B28A4201D1B3
:100E40000023180070472DE9F04104000D00160042
:100E500000270120FFF7EAFF002813D10020804679
:100E6000B04509D2102218EB050118EB0400FFF77A
:100E700053FF18F11008F3E7320029002000FFF7B4
:100E80007FFF07003800BDE8F081F8B504000D00D1
:100E900000260120FFF7CAFF00282AD1EDB255FA3B
:100EA00084F0412822DA00200700FFB2EDB2AF4201
:100EB0000CD240221848FFB257FA84F150F82110A2
:100EC0005FF0BC40FFF76DFF7F1CEEE7EDB24FF423
:100ED000805000FB05F11048E4B250F82400FFF701
:100EE00090FF012807D10120060004E00120060040
:100EF00001E0012006003000F2BD00004001FF5D6E
:100F0000F80F8FFF239D4AA71800FF5D5005005E74
:100F1000A00A005E2000FF5D540200200000005E79
:100F20000010005E0020005E0030005E0040005EA9
:100F30000050005E0060005E0070005E0080005E99
:100F40000090005E00A0005E00B0005E00C0005E89
:100F500000D0005E00E0005E00F0005E0000015E78
:100F60000010015E0020015E0030015E0040015E65
:100F70000050015E0060015E0070015E0080015E55
:100F80000090015E00A0015E00B0015E00C0015E45
:100F900000D0015E00E0015E00F0015E0000025E34
:100FA0000010025E0020025E0030025E0040025E21
:100FB0000050025E0060025E0070025E0080025E11
:100FC0000090025E00A0025E00B0025E00C0025E01
:100FD00000D0025E00E0025E00F0025E0000035EF0
:100FE0000010035E0020035E0030035E0040035EDD
:100FF0000050035E0060035E0070035E0080035ECD
:101000000090035E00A0035E00B0035E00C0035EBC
:1010100000D0035E00E0035E00F0035E0001020307
:101020000405060708090A0B0C0D0E0F000000004E
:10103000C046C046FFF700FEFFF710FE43FAFFFF71
:101040000C0000006805002000000000BFFBFFFF4F
:101050006803000074FCFFFF000000200000000097
:020000040002F8
:080FE000FE79E8CF018617300D
:080FE800600C13F89FF3EC0705
:020000040003F7
:10F00000FF3132333435363738394142434445468F
:10F01000313233343536373839414243444546314D
:10F02000323334353637383941424344454631323C
:10F03000333435363738394142434445463132332B
:10F04000343536373839414243444546313233341A
:10F050003536373839414243444546313233343509
:10F0600036373839414243444546313233343536F8
:10F0700037383941424344454631323334353637E7
:10F0800038394142434445463132333435363738D6
:10F0900039414243444546313233343536373839C5
:10F0A00041424344454631323334353637383941AD
:10F0B000424344454631323334353637383941429C
:10F0C000434445463132333435363738394142438B
:10F0D000444546313233343536373839414243447A
:10F0E0004546313233343536373839414243444569
:10F0F0004631323334353637383941424344454658
:0400000500001031B6
:00000001FF
